{
  "address": "0x5FbDB2315678afecb367f032d93F642f64180aa3",
  "abi": [
    {
      "inputs": [],
      "stateMutability": "nonpayable",
      "type": "constructor"
    },
    {
      "anonymous": false,
      "inputs": [
        {
          "indexed": false,
          "internalType": "uint256",
          "name": "_contractID",
          "type": "uint256"
        },
        {
          "indexed": false,
          "internalType": "address",
          "name": "_customer",
          "type": "address"
        },
        {
          "indexed": false,
          "internalType": "address",
          "name": "_freelancer",
          "type": "address"
        },
        {
          "indexed": false,
          "internalType": "uint256",
          "name": "_price",
          "type": "uint256"
        }
      ],
      "name": "EscrowDeposited",
      "type": "event"
    },
    {
      "anonymous": false,
      "inputs": [
        {
          "indexed": false,
          "internalType": "uint256",
          "name": "_contractID",
          "type": "uint256"
        }
      ],
      "name": "EscrowEnded",
      "type": "event"
    },
    {
      "anonymous": false,
      "inputs": [
        {
          "indexed": false,
          "internalType": "uint256",
          "name": "_contractID",
          "type": "uint256"
        },
        {
          "indexed": false,
          "internalType": "address",
          "name": "_customer",
          "type": "address"
        },
        {
          "indexed": false,
          "internalType": "address",
          "name": "_freelancer",
          "type": "address"
        },
        {
          "indexed": false,
          "internalType": "uint256",
          "name": "_price",
          "type": "uint256"
        }
      ],
      "name": "EscrowStarted",
      "type": "event"
    },
    {
      "inputs": [
        {
          "internalType": "uint256",
          "name": "_contractID",
          "type": "uint256"
        }
      ],
      "name": "confirmDelivery",
      "outputs": [],
      "stateMutability": "nonpayable",
      "type": "function"
    },
    {
      "inputs": [
        {
          "internalType": "uint256",
          "name": "_contractID",
          "type": "uint256"
        }
      ],
      "name": "confirmStart",
      "outputs": [],
      "stateMutability": "nonpayable",
      "type": "function"
    },
    {
      "inputs": [],
      "name": "contractCounter",
      "outputs": [
        {
          "internalType": "uint256",
          "name": "",
          "type": "uint256"
        }
      ],
      "stateMutability": "view",
      "type": "function"
    },
    {
      "inputs": [],
      "name": "contractID",
      "outputs": [
        {
          "internalType": "uint256",
          "name": "",
          "type": "uint256"
        }
      ],
      "stateMutability": "view",
      "type": "function"
    },
    {
      "inputs": [
        {
          "internalType": "uint256",
          "name": "",
          "type": "uint256"
        }
      ],
      "name": "customer",
      "outputs": [
        {
          "internalType": "address",
          "name": "",
          "type": "address"
        }
      ],
      "stateMutability": "view",
      "type": "function"
    },
    {
      "inputs": [
        {
          "internalType": "uint256",
          "name": "_contractID",
          "type": "uint256"
        }
      ],
      "name": "deposit",
      "outputs": [],
      "stateMutability": "payable",
      "type": "function"
    },
    {
      "inputs": [
        {
          "internalType": "uint256",
          "name": "",
          "type": "uint256"
        }
      ],
      "name": "freelancer",
      "outputs": [
        {
          "internalType": "address",
          "name": "",
          "type": "address"
        }
      ],
      "stateMutability": "view",
      "type": "function"
    },
    {
      "inputs": [
        {
          "internalType": "uint256",
          "name": "_contractID",
          "type": "uint256"
        }
      ],
      "name": "getCustomer",
      "outputs": [
        {
          "internalType": "address",
          "name": "",
          "type": "address"
        }
      ],
      "stateMutability": "view",
      "type": "function"
    },
    {
      "inputs": [
        {
          "internalType": "uint256",
          "name": "_contractID",
          "type": "uint256"
        }
      ],
      "name": "getFreelancer",
      "outputs": [
        {
          "internalType": "address",
          "name": "",
          "type": "address"
        }
      ],
      "stateMutability": "view",
      "type": "function"
    },
    {
      "inputs": [
        {
          "internalType": "address",
          "name": "_freelancer",
          "type": "address"
        },
        {
          "internalType": "uint256",
          "name": "_price",
          "type": "uint256"
        }
      ],
      "name": "initContract",
      "outputs": [],
      "stateMutability": "nonpayable",
      "type": "function"
    },
    {
      "inputs": [
        {
          "internalType": "uint256",
          "name": "",
          "type": "uint256"
        },
        {
          "internalType": "address",
          "name": "",
          "type": "address"
        }
      ],
      "name": "isCustomerIn",
      "outputs": [
        {
          "internalType": "bool",
          "name": "",
          "type": "bool"
        }
      ],
      "stateMutability": "view",
      "type": "function"
    },
    {
      "inputs": [
        {
          "internalType": "uint256",
          "name": "",
          "type": "uint256"
        },
        {
          "internalType": "address",
          "name": "",
          "type": "address"
        }
      ],
      "name": "isCustomerOut",
      "outputs": [
        {
          "internalType": "bool",
          "name": "",
          "type": "bool"
        }
      ],
      "stateMutability": "view",
      "type": "function"
    },
    {
      "inputs": [
        {
          "internalType": "uint256",
          "name": "",
          "type": "uint256"
        },
        {
          "internalType": "address",
          "name": "",
          "type": "address"
        }
      ],
      "name": "isFreelancerIn",
      "outputs": [
        {
          "internalType": "bool",
          "name": "",
          "type": "bool"
        }
      ],
      "stateMutability": "view",
      "type": "function"
    },
    {
      "inputs": [
        {
          "internalType": "uint256",
          "name": "",
          "type": "uint256"
        },
        {
          "internalType": "address",
          "name": "",
          "type": "address"
        }
      ],
      "name": "isFreelancerOut",
      "outputs": [
        {
          "internalType": "bool",
          "name": "",
          "type": "bool"
        }
      ],
      "stateMutability": "view",
      "type": "function"
    },
    {
      "inputs": [],
      "name": "owner",
      "outputs": [
        {
          "internalType": "address",
          "name": "",
          "type": "address"
        }
      ],
      "stateMutability": "view",
      "type": "function"
    },
    {
      "inputs": [
        {
          "internalType": "uint256",
          "name": "",
          "type": "uint256"
        }
      ],
      "name": "priceHistory",
      "outputs": [
        {
          "internalType": "uint256",
          "name": "",
          "type": "uint256"
        }
      ],
      "stateMutability": "view",
      "type": "function"
    },
    {
      "inputs": [
        {
          "internalType": "uint256",
          "name": "_contractID",
          "type": "uint256"
        }
      ],
      "name": "refundFunds",
      "outputs": [],
      "stateMutability": "payable",
      "type": "function"
    },
    {
      "inputs": [
        {
          "internalType": "uint256",
          "name": "",
          "type": "uint256"
        }
      ],
      "name": "stateHistory",
      "outputs": [
        {
          "internalType": "enum Escrow.State",
          "name": "",
          "type": "uint8"
        }
      ],
      "stateMutability": "view",
      "type": "function"
    }
  ],
  "transactionHash": "0x3d35db4655d37756d4d405ae6ee47be3c6280c877e740298a60e73bddf0a5eab",
  "args": [],
  "numDeployments": 1,
  "solcInputHash": "1b94719285abcab2758bfac2485d21f3",
  "bytecode": "0x608060405234801561001057600080fd5b50336000806101000a81548173ffffffffffffffffffffffffffffffffffffffff021916908373ffffffffffffffffffffffffffffffffffffffff160217905550611c30806100606000396000f3fe6080604052600436106101095760003560e01c806391f30bd411610095578063b6b55f2511610064578063b6b55f25146103a8578063c33ec0ed146103c4578063eb876f2714610401578063f6e3fb061461043e578063fd84cb971461047b57610109565b806391f30bd4146102c6578063937fa08e146102f1578063a22cd09f1461032e578063b27a04841461036b57610109565b806348f2d08c116100dc57806348f2d08c146101bb578063512a73ba146101f8578063667b5202146102355780638da5cb5b1461025e578063905449841461028957610109565b806303bed27a1461010e578063067bd3b41461014b57806315f1bbfe146101765780631cf5a28514610192575b600080fd5b34801561011a57600080fd5b5061013560048036038101906101309190611558565b6104a4565b60405161014291906115b3565b60405180910390f35b34801561015757600080fd5b506101606104d3565b60405161016d91906115dd565b60405180910390f35b610190600480360381019061018b91906115f8565b6104d9565b005b34801561019e57600080fd5b506101b960048036038101906101b491906115f8565b61069c565b005b3480156101c757600080fd5b506101e260048036038101906101dd91906115f8565b610a39565b6040516101ef9190611634565b60405180910390f35b34801561020457600080fd5b5061021f600480360381019061021a9190611558565b610a6c565b60405161022c91906115b3565b60405180910390f35b34801561024157600080fd5b5061025c6004803603810190610257919061164f565b610a9b565b005b34801561026a57600080fd5b50610273610c5b565b6040516102809190611634565b60405180910390f35b34801561029557600080fd5b506102b060048036038101906102ab91906115f8565b610c7f565b6040516102bd9190611706565b60405180910390f35b3480156102d257600080fd5b506102db610c9f565b6040516102e891906115dd565b60405180910390f35b3480156102fd57600080fd5b5061031860048036038101906103139190611558565b610ca5565b60405161032591906115b3565b60405180910390f35b34801561033a57600080fd5b50610355600480360381019061035091906115f8565b610cd4565b6040516103629190611634565b60405180910390f35b34801561037757600080fd5b50610392600480360381019061038d91906115f8565b610d07565b60405161039f91906115dd565b60405180910390f35b6103c260048036038101906103bd91906115f8565b610d1f565b005b3480156103d057600080fd5b506103eb60048036038101906103e69190611558565b610f91565b6040516103f891906115b3565b60405180910390f35b34801561040d57600080fd5b50610428600480360381019061042391906115f8565b610fc0565b6040516104359190611634565b60405180910390f35b34801561044a57600080fd5b50610465600480360381019061046091906115f8565b610ffd565b6040516104729190611634565b60405180910390f35b34801561048757600080fd5b506104a2600480360381019061049d91906115f8565b61103a565b005b600a6020528160005260406000206020528060005260406000206000915091509054906101000a900460ff1681565b60025481565b60008054906101000a900473ffffffffffffffffffffffffffffffffffffffff1673ffffffffffffffffffffffffffffffffffffffff163373ffffffffffffffffffffffffffffffffffffffff16148061059157506006600082815260200190815260200160002060009054906101000a900473ffffffffffffffffffffffffffffffffffffffff1673ffffffffffffffffffffffffffffffffffffffff163373ffffffffffffffffffffffffffffffffffffffff16145b6105d0576040517f08c379a00000000000000000000000000000000000000000000000000000000081526004016105c7906117ca565b60405180910390fd5b6005600082815260200190815260200160002060009054906101000a900473ffffffffffffffffffffffffffffffffffffffff1673ffffffffffffffffffffffffffffffffffffffff166108fc60046000848152602001908152602001600020549081150290604051600060405180830381858888f1935050505015801561065c573d6000803e3d6000fd5b5060046003600083815260200190815260200160002060006101000a81548160ff021916908360048111156106945761069361168f565b5b021790555050565b600160048111156106b0576106af61168f565b5b6003600083815260200190815260200160002060009054906101000a900460ff1660048111156106e3576106e261168f565b5b14610723576040517f08c379a000000000000000000000000000000000000000000000000000000000815260040161071a9061185c565b60405180910390fd5b6005600082815260200190815260200160002060009054906101000a900473ffffffffffffffffffffffffffffffffffffffff1673ffffffffffffffffffffffffffffffffffffffff163373ffffffffffffffffffffffffffffffffffffffff1614156107f85760016007600083815260200190815260200160002060003373ffffffffffffffffffffffffffffffffffffffff1673ffffffffffffffffffffffffffffffffffffffff16815260200190815260200160002060006101000a81548160ff0219169083151502179055506108ca565b6006600082815260200190815260200160002060009054906101000a900473ffffffffffffffffffffffffffffffffffffffff1673ffffffffffffffffffffffffffffffffffffffff163373ffffffffffffffffffffffffffffffffffffffff1614156108c95760016009600083815260200190815260200160002060003373ffffffffffffffffffffffffffffffffffffffff1673ffffffffffffffffffffffffffffffffffffffff16815260200190815260200160002060006101000a81548160ff0219169083151502179055505b5b6007600082815260200190815260200160002060006005600084815260200190815260200160002060009054906101000a900473ffffffffffffffffffffffffffffffffffffffff1673ffffffffffffffffffffffffffffffffffffffff1673ffffffffffffffffffffffffffffffffffffffff16815260200190815260200160002060009054906101000a900460ff1680156109f457506009600082815260200190815260200160002060006006600084815260200190815260200160002060009054906101000a900473ffffffffffffffffffffffffffffffffffffffff1673ffffffffffffffffffffffffffffffffffffffff1673ffffffffffffffffffffffffffffffffffffffff16815260200190815260200160002060009054906101000a900460ff165b15610a365760026003600083815260200190815260200160002060006101000a81548160ff02191690836004811115610a3057610a2f61168f565b5b02179055505b50565b60066020528060005260406000206000915054906101000a900473ffffffffffffffffffffffffffffffffffffffff1681565b60086020528160005260406000206020528060005260406000206000915091509054906101000a900460ff1681565b8173ffffffffffffffffffffffffffffffffffffffff163373ffffffffffffffffffffffffffffffffffffffff161415610b0a576040517f08c379a0000000000000000000000000000000000000000000000000000000008152600401610b01906118ee565b60405180910390fd5b610b1261149b565b6001819055503360056000600154815260200190815260200160002060006101000a81548173ffffffffffffffffffffffffffffffffffffffff021916908373ffffffffffffffffffffffffffffffffffffffff1602179055508160066000600154815260200190815260200160002060006101000a81548173ffffffffffffffffffffffffffffffffffffffff021916908373ffffffffffffffffffffffffffffffffffffffff160217905550600160036000600154815260200190815260200160002060006101000a81548160ff02191690836004811115610bf957610bf861168f565b5b021790555080600460006001548152602001908152602001600020819055507f299b7566723e9e25e0ffd5bb359542c1555ec77075af6e3e1ec8cc811b304545600154338484604051610c4f949392919061190e565b60405180910390a15050565b60008054906101000a900473ffffffffffffffffffffffffffffffffffffffff1681565b60036020528060005260406000206000915054906101000a900460ff1681565b60015481565b60096020528160005260406000206020528060005260406000206000915091509054906101000a900460ff1681565b60056020528060005260406000206000915054906101000a900473ffffffffffffffffffffffffffffffffffffffff1681565b60046020528060005260406000206000915090505481565b6005600082815260200190815260200160002060009054906101000a900473ffffffffffffffffffffffffffffffffffffffff1673ffffffffffffffffffffffffffffffffffffffff163373ffffffffffffffffffffffffffffffffffffffff1614610dc0576040517f08c379a0000000000000000000000000000000000000000000000000000000008152600401610db7906119c5565b60405180910390fd5b60026004811115610dd457610dd361168f565b5b6003600083815260200190815260200160002060009054906101000a900460ff166004811115610e0757610e0661168f565b5b14610e47576040517f08c379a0000000000000000000000000000000000000000000000000000000008152600401610e3e90611a31565b60405180910390fd5b6004600082815260200190815260200160002054341015610e9d576040517f08c379a0000000000000000000000000000000000000000000000000000000008152600401610e9490611ac3565b60405180910390fd5b600380600083815260200190815260200160002060006101000a81548160ff02191690836004811115610ed357610ed261168f565b5b02179055507ff65dbfab384306dedb47dd838797bc5dfe7f150c8c44cd9bc884642e57cbee58816005600084815260200190815260200160002060009054906101000a900473ffffffffffffffffffffffffffffffffffffffff166006600085815260200190815260200160002060009054906101000a900473ffffffffffffffffffffffffffffffffffffffff166004600086815260200190815260200160002054604051610f86949392919061190e565b60405180910390a150565b60076020528160005260406000206020528060005260406000206000915091509054906101000a900460ff1681565b60006005600083815260200190815260200160002060009054906101000a900473ffffffffffffffffffffffffffffffffffffffff169050919050565b60006006600083815260200190815260200160002060009054906101000a900473ffffffffffffffffffffffffffffffffffffffff169050919050565b6003600481111561104e5761104d61168f565b5b6003600083815260200190815260200160002060009054906101000a900460ff1660048111156110815761108061168f565b5b146110c1576040517f08c379a00000000000000000000000000000000000000000000000000000000081526004016110b890611b55565b60405180910390fd5b6005600082815260200190815260200160002060009054906101000a900473ffffffffffffffffffffffffffffffffffffffff1673ffffffffffffffffffffffffffffffffffffffff163373ffffffffffffffffffffffffffffffffffffffff1614156111965760016008600083815260200190815260200160002060003373ffffffffffffffffffffffffffffffffffffffff1673ffffffffffffffffffffffffffffffffffffffff16815260200190815260200160002060006101000a81548160ff021916908315150217905550611268565b6006600082815260200190815260200160002060009054906101000a900473ffffffffffffffffffffffffffffffffffffffff1673ffffffffffffffffffffffffffffffffffffffff163373ffffffffffffffffffffffffffffffffffffffff161415611267576001600a600083815260200190815260200160002060003373ffffffffffffffffffffffffffffffffffffffff1673ffffffffffffffffffffffffffffffffffffffff16815260200190815260200160002060006101000a81548160ff0219169083151502179055505b5b6008600082815260200190815260200160002060006005600084815260200190815260200160002060009054906101000a900473ffffffffffffffffffffffffffffffffffffffff1673ffffffffffffffffffffffffffffffffffffffff1673ffffffffffffffffffffffffffffffffffffffff16815260200190815260200160002060009054906101000a900460ff1680156113925750600a600082815260200190815260200160002060006006600084815260200190815260200160002060009054906101000a900473ffffffffffffffffffffffffffffffffffffffff1673ffffffffffffffffffffffffffffffffffffffff1673ffffffffffffffffffffffffffffffffffffffff16815260200190815260200160002060009054906101000a900460ff165b15611498576006600082815260200190815260200160002060009054906101000a900473ffffffffffffffffffffffffffffffffffffffff1673ffffffffffffffffffffffffffffffffffffffff166108fc60046000848152602001908152602001600020549081150290604051600060405180830381858888f19350505050158015611423573d6000803e3d6000fd5b5060046003600083815260200190815260200160002060006101000a81548160ff0219169083600481111561145b5761145a61168f565b5b02179055507f8d9cc3df1ba9b6f1bdad995926f463832cdcb373e063e95d0fbe7aa9876eb38d8160405161148f91906115dd565b60405180910390a15b50565b60006001600260008282546114b09190611ba4565b92505081905550600254905090565b600080fd5b6000819050919050565b6114d7816114c4565b81146114e257600080fd5b50565b6000813590506114f4816114ce565b92915050565b600073ffffffffffffffffffffffffffffffffffffffff82169050919050565b6000611525826114fa565b9050919050565b6115358161151a565b811461154057600080fd5b50565b6000813590506115528161152c565b92915050565b6000806040838503121561156f5761156e6114bf565b5b600061157d858286016114e5565b925050602061158e85828601611543565b9150509250929050565b60008115159050919050565b6115ad81611598565b82525050565b60006020820190506115c860008301846115a4565b92915050565b6115d7816114c4565b82525050565b60006020820190506115f260008301846115ce565b92915050565b60006020828403121561160e5761160d6114bf565b5b600061161c848285016114e5565b91505092915050565b61162e8161151a565b82525050565b60006020820190506116496000830184611625565b92915050565b60008060408385031215611666576116656114bf565b5b600061167485828601611543565b9250506020611685858286016114e5565b9150509250929050565b7f4e487b7100000000000000000000000000000000000000000000000000000000600052602160045260246000fd5b600581106116cf576116ce61168f565b5b50565b60008190506116e0826116be565b919050565b60006116f0826116d2565b9050919050565b611700816116e5565b82525050565b600060208201905061171b60008301846116f7565b92915050565b600082825260208201905092915050565b7f546869732063616e206f6e6c7920626520706572666f726d656420627920746860008201527f65206f776e6572206f662074686520636f6e7472616374206f7220746865206660208201527f7265656c616e6365720000000000000000000000000000000000000000000000604082015250565b60006117b4604983611721565b91506117bf82611732565b606082019050919050565b600060208201905081810360008301526117e3816117a7565b9050919050565b7f436f6e7472616374206e6f7420696e204157414954494e475f5354415254207360008201527f7461746500000000000000000000000000000000000000000000000000000000602082015250565b6000611846602483611721565b9150611851826117ea565b604082019050919050565b6000602082019050818103600083015261187581611839565b9050919050565b7f437573746f6d657220616e6420467265656c616e6365722063616e277420626560008201527f207468652073616d650000000000000000000000000000000000000000000000602082015250565b60006118d8602983611721565b91506118e38261187c565b604082019050919050565b60006020820190508181036000830152611907816118cb565b9050919050565b600060808201905061192360008301876115ce565b6119306020830186611625565b61193d6040830185611625565b61194a60608301846115ce565b95945050505050565b7f4f6e6c792074686520637573746f6d65722063616e20706572666f726d20746860008201527f697320616374696f6e2e00000000000000000000000000000000000000000000602082015250565b60006119af602a83611721565b91506119ba82611953565b604082019050919050565b600060208201905081810360008301526119de816119a2565b9050919050565b7f54686520657363726f7720686173206265656e2066756e646564000000000000600082015250565b6000611a1b601a83611721565b9150611a26826119e5565b602082019050919050565b60006020820190508181036000830152611a4a81611a0e565b9050919050565b7f54686520616d6f756e74207472616e7366657265642073686f756c642062652060008201527f6d6f7265207468616e20617070726f76656420616d6f756e7400000000000000602082015250565b6000611aad603983611721565b9150611ab882611a51565b604082019050919050565b60006020820190508181036000830152611adc81611aa0565b9050919050565b7f54686520657363726f772063616e277420626520636f6e6669726d656420617460008201527f2074686973207374616765000000000000000000000000000000000000000000602082015250565b6000611b3f602b83611721565b9150611b4a82611ae3565b604082019050919050565b60006020820190508181036000830152611b6e81611b32565b9050919050565b7f4e487b7100000000000000000000000000000000000000000000000000000000600052601160045260246000fd5b6000611baf826114c4565b9150611bba836114c4565b9250827fffffffffffffffffffffffffffffffffffffffffffffffffffffffffffffffff03821115611bef57611bee611b75565b5b82820190509291505056fea2646970667358221220aa72882049524d8ed9e3cc5c4ab78deac062b81ddd72c5080d202a45d051560b64736f6c63430008090033",
  "devdoc": {
    "kind": "dev",
    "methods": {},
    "version": 1
  },
  "userdoc": {
    "kind": "user",
    "methods": {},
    "version": 1
  },
  "storageLayout": {
    "storage": [
      {
        "astId": 3,
        "contract": "contracts/MyEscrow.sol:Escrow",
        "label": "owner",
        "offset": 0,
        "slot": "0",
        "type": "t_address"
      },
      {
        "astId": 11,
        "contract": "contracts/MyEscrow.sol:Escrow",
        "label": "contractID",
        "offset": 0,
        "slot": "1",
        "type": "t_uint256"
      },
      {
        "astId": 13,
        "contract": "contracts/MyEscrow.sol:Escrow",
        "label": "contractCounter",
        "offset": 0,
        "slot": "2",
        "type": "t_uint256"
      },
      {
        "astId": 18,
        "contract": "contracts/MyEscrow.sol:Escrow",
        "label": "stateHistory",
        "offset": 0,
        "slot": "3",
        "type": "t_mapping(t_uint256,t_enum(State)9)"
      },
      {
        "astId": 22,
        "contract": "contracts/MyEscrow.sol:Escrow",
        "label": "priceHistory",
        "offset": 0,
        "slot": "4",
        "type": "t_mapping(t_uint256,t_uint256)"
      },
      {
        "astId": 26,
        "contract": "contracts/MyEscrow.sol:Escrow",
        "label": "customer",
        "offset": 0,
        "slot": "5",
        "type": "t_mapping(t_uint256,t_address)"
      },
      {
        "astId": 30,
        "contract": "contracts/MyEscrow.sol:Escrow",
        "label": "freelancer",
        "offset": 0,
        "slot": "6",
        "type": "t_mapping(t_uint256,t_address)"
      },
      {
        "astId": 36,
        "contract": "contracts/MyEscrow.sol:Escrow",
        "label": "isCustomerIn",
        "offset": 0,
        "slot": "7",
        "type": "t_mapping(t_uint256,t_mapping(t_address,t_bool))"
      },
      {
        "astId": 42,
        "contract": "contracts/MyEscrow.sol:Escrow",
        "label": "isCustomerOut",
        "offset": 0,
        "slot": "8",
        "type": "t_mapping(t_uint256,t_mapping(t_address,t_bool))"
      },
      {
        "astId": 48,
        "contract": "contracts/MyEscrow.sol:Escrow",
        "label": "isFreelancerIn",
        "offset": 0,
        "slot": "9",
        "type": "t_mapping(t_uint256,t_mapping(t_address,t_bool))"
      },
      {
        "astId": 54,
        "contract": "contracts/MyEscrow.sol:Escrow",
        "label": "isFreelancerOut",
        "offset": 0,
        "slot": "10",
        "type": "t_mapping(t_uint256,t_mapping(t_address,t_bool))"
      }
    ],
    "types": {
      "t_address": {
        "encoding": "inplace",
        "label": "address",
        "numberOfBytes": "20"
      },
      "t_bool": {
        "encoding": "inplace",
        "label": "bool",
        "numberOfBytes": "1"
      },
      "t_enum(State)9": {
        "encoding": "inplace",
        "label": "enum Escrow.State",
        "numberOfBytes": "1"
      },
      "t_mapping(t_address,t_bool)": {
        "encoding": "mapping",
        "key": "t_address",
        "label": "mapping(address => bool)",
        "numberOfBytes": "32",
        "value": "t_bool"
      },
      "t_mapping(t_uint256,t_address)": {
        "encoding": "mapping",
        "key": "t_uint256",
        "label": "mapping(uint256 => address)",
        "numberOfBytes": "32",
        "value": "t_address"
      },
      "t_mapping(t_uint256,t_enum(State)9)": {
        "encoding": "mapping",
        "key": "t_uint256",
        "label": "mapping(uint256 => enum Escrow.State)",
        "numberOfBytes": "32",
        "value": "t_enum(State)9"
      },
      "t_mapping(t_uint256,t_mapping(t_address,t_bool))": {
        "encoding": "mapping",
        "key": "t_uint256",
        "label": "mapping(uint256 => mapping(address => bool))",
        "numberOfBytes": "32",
        "value": "t_mapping(t_address,t_bool)"
      },
      "t_mapping(t_uint256,t_uint256)": {
        "encoding": "mapping",
        "key": "t_uint256",
        "label": "mapping(uint256 => uint256)",
        "numberOfBytes": "32",
        "value": "t_uint256"
      },
      "t_uint256": {
        "encoding": "inplace",
        "label": "uint256",
        "numberOfBytes": "32"
      }
    }
  }
}